:100000004EEF00F00000000000EF00F000000000E4
:0A0010000000000000000000F3D71C
:10001C00060E0C6E2B0E0D6E0D2EFED70C2EFCD775
:02002C001200C0
:10002E00206A1CC001F0010E006E015004E0003683
:10003E000090FF0FFBD700C01FF01AC0E9FF1BC0D6
:10004E00EAFF0050EE14016E0152010ED8A4000E0C
:10005E00006E1E50001A18E01D50000804E2D7DF93
:10006E00D6DF1D06F9D71AC0E9FF1BC0EAFF1F50E5
:10007E00EE14016E0152010ED8A4000E006E1E5039
:0E008E00001A02E0FF0E206E20C000F01200EB
:10009C007E6A7F6A9380946A826A1790010E186E4A
:1000AC00000E196E156A166A810E1A6E0F0E1B6EF3
:1000BC001C6A010E1D6E010E1E6EB3DF0052D8A419
:1000CC001780810E1A6E0F0E1B6E010E1C6E010E28
:1000DC001D6E010E1E6EA5DF0052D8A4179017A03E
:1000EC0003D01850821202D015508216DDD7FFD7DC
:020000040030CA
:0D00010006191EFF8B81FF0FC00FE00F409E
:00000001FF
